:020000040800F2
:10000000881C0020D900000889A000087981000818
:1000100000000000000000000000000000000000E0
:1000200000000000000000000000000033CD0008C8
:10003000000000000000000099AF0008B9F00008BF
:10004000EB000008EB000008D3B70008EB00000845
:10005000EB000008193D0008293D0008393D000863
:10006000EB000008EB000008EB000008312F00084F
:10007000EB000008EB000008EB000008EB000008B4
:10008000A9F10008EB000008EB00000800000000E8
:10009000A1F10008EB000008EB000008EB000008ED
:1000A000EB000008EB000008EB000008A5FB0008CF
:1000B000EB0000086DB7000800000000EB0000082E
:1000C0000448854600F044FF004800476D300108B1
:1000D000C046C046881C00200448804704480047AA
:1000E000FEE7FEE7FEE7FEE7FEE7FEE74DF100086C
:1000F000C100000830B50B46014600202022012433
:1001000009E00D46D5409D4205D31D469540491B4B
:100110002546954040191546521E002DF1DC30BD94
:1001200070B500242546002801DA01244042002948
:1001300001DA01254942FFF7DDFFAC4200D0404221
:10014000002C00D0494270BDF0B51FB40646002017
:1001500082B005464024019100901BE0019922469F
:100160000F46304600F0ECFC049A059B801A99413A
:1001700010D310461946224600F0D2FC361A8F41A1
:100180000197224601200021009F00F0C9FC381889
:100190004D4100902046641E0028DFDC019B009842
:1001A0002946324607B0F0BDF0B51FB486B0002036
:1001B0000090019002900698069980B204900798EA
:1001C000090C02040014114307900027089D0998A8
:1001D00006913E463C4603900398A9B20204000CE7
:1001E000039004982D0C154348430021224600F04B
:1001F00097FCC719714110340E46402CECDB384691
:10020000029A00F08DFC009A019B801800905941E1
:1002100002980191103002904028CCDB00980BB07E
:10022000F0BD03460B439B0703D009E008C9121F2A
:1002300008C0042AFAD203E00B780370401C491C62
:10024000521EF9D27047D2B201E00270401C491E22
:10025000FBD270470022F6E710B513460A46044663
:100260001946FFF7F0FF204610BD421C0178401CE4
:100270000029FBD1801A704710B5002200E0521C03
:10028000835C8C5CA34201D1002BF8D1D8B2E1B2DF
:10029000401A10BD30B505460020034600E05B1C47
:1002A000934205D2EC5CC85C201A01D1002CF6D137
:1002B00030BD00000FB400B58DB009900B9010A9AF
:1002C00000200091C0430A9000200C900648069040
:1002D000064807906A4609A80F9900F06BFC0DB01C
:1002E00008BC04B018470000D50B0008F50B000847
:1002F000FFB50027FF4383B000205C6801909E6833
:100300001D46A9697F1C049888470090296A884780
:100310000028F6D10098401C0CD0032040028443F2
:10032000002E19DD600614D500982B2809D02D2841
:100330000FD103E00020C04307B0F0BD01208002D0
:100340000443A9697F1C04988847761E0090002EFC
:1003500002DD0098302803D00598002825D035E02C
:10036000012040020443A969761E7F1C0498884737
:100370000090002E03DD782805D0582803D005987A
:10038000002810D022E00598002801D010281DD1A7
:10039000012040028443A969761E7F1C0498884787
:1003A0000090102002E0082000E00A2005900DE0F7
:1003B000012149020C43059A0199761E5143081800
:1003C0000190A9697F1C049888470090002E05DDE4
:1003D0000599009800F0D8FB0028E9DAE96904984B
:1003E0008847A00502D40120C043A5E7E00722D139
:1003F000600611D56005019800D5404229680A1DA4
:100400002A600968220501D5087014E0220701D589
:10041000088010E008600EE02868011D296000686F
:10042000210502D50199017005E02107019901D547
:10043000018000E0016038467EE770B506460FF0A7
:100440000BFD046805460A220021304600F036FC08
:100450002C6070BDF8B502464A40D40F42004B00F4
:1004600052085B089A4202D20246084611464A00E8
:1004700023D0C30D4A00DDB2120EAD1A202D35DA9D
:1004800049020126490AF6058A19002C00D0524279
:1004900020214F1B1146B9402A411018C20D9A4223
:1004A00021D0002C17D0012D08DCDA05801AD20FDC
:1004B0008019D207DBB200F041FCF8BDDA05801AE2
:1004C000012340001B06C01880185A428018CA0F2A
:1004D0001043490007E04908C2071143DA05801AB2
:1004E00080194008801800F021FCF8BD610001224D
:1004F000511A001BF7E70122D2075140AAE7012257
:10050000D2075040A6E7024670B54A40D30FDB073A
:1005100040002DD04A002AD0010E140E0002120213
:100520000919400A520A8418E50104465443000A96
:10053000120A2E045043A4194219200CC543AA18CC
:10054000120C0125AD03521C521912047F392404E8
:1005500000D0521C104301D44000491EC2B20C0608
:10056000C0092018401C4008802A02D003E0002067
:1005700070BD40084000002900DA0020184370BD1B
:1005800070B502464A40D50F40004A00ED074008CA
:100590005208002814D0002A12D0C40DD30D4102F5
:1005A0000120C0055202490A520AE41A0918121819
:1005B0007D34914201D3641C00E04900002C01DA33
:1005C000002070BD0023914201D3891A03434008E3
:1005D00049000028F7D100290AD0914202D1012117
:1005E000C90705E0914201D2012101E00121C9437F
:1005F000E005C018401900F099FB70BDF0B5074642
:100600000846584087B0C00F049048000E46590075
:1006100040084908BC1A884105D2384631461E4672
:1006200017460B4602465800400810434DD0300D87
:10063000039040055900400D490D0590401A029065
:10064000402873DA18030121000B090508430190C3
:1006500004980092002806D01146019A49420020D1
:10066000904100910190029840210A1A0199009846
:1006700000F056FA05460C466B4607CB00F071FABF
:10068000C0197141039A0E0D0023D71756401A4620
:100690007A40164344D0049A002A2DD0029A012AA7
:1006A000039A15DC1205C01A914101263605001C7B
:1006B0007141D20F059ED2070093019202962A46FD
:1006C000234600F081FB07B0F0BD38463146FAE71B
:1006D0001605234A0F46B218C01AB7410121090571
:1006E000001C4F4100187F41114618187941E20F54
:1006F00010436D19644113E0E2076D081543640867
:10070000C2071443039A01261205C01A9141360507
:10071000001C7141CE07400830434908C0185141C0
:100720002A46234600F043FBCDE7FFE70498012269
:100730004000C117121A00238B4104983146C41798
:10074000381AA141EEE730B40124E407634030BC1D
:1007500054E730B40124E407614030BC4EE70000A8
:100760000000E0FFF0B51FB488B00B990998002491
:1007700048400999C00F490049080991C0070B99E1
:100780000090490049080B9109990898A64608432A
:100790001CD00B990A98084318D0099801244000EE
:1007A000420D4800410D099824050003000B204329
:1007B00009900B980003000B20430B9050181C4924
:1007C0004018002201901446104605E00020014622
:1007D0000DB0F0BD032801DA034600E003239C4678
:1007E000C11A0AAE0AE05F0008ADED5B4F00F75B8F
:1007F0007D430027AA187C41491C5B1E6145F2DD40
:10080000410004AB5A522104120C0A43240C401C30
:100810000828DFDB01980290009970460191009052
:10082000059B049A0799069800F0CEFAD0E70000DD
:100830000DFCFFFFF0B50C465C4085B0E40FE4070B
:1008400003944C0000266408590094464908024667
:100850000296224321D062460A431ED06200570D01
:100860004A000E032303550D012402462C4924059A
:10087000781B1B0B360B4018234326436146009020
:100880001C46501AB44103D30098401C009002E06B
:10089000921800985B41002803DA0020014605B059
:1008A000F0BD0020012109050746864611E0644697
:1008B0001D46141BB54106D36546521BB341744611
:1008C00007430C43A646CD07400849082843921821
:1008D0005B4105460D43EAD11046184313D06046EC
:1008E000194650407140084306D06046101AB34183
:1008F00006D20122002306E000220123DB0702E0EA
:100900000122D2435310009874460105381C6141FE
:10091000029C039D0019694100F049FABFE70000FD
:10092000FD03000070B54B005B0803430BD04B0088
:100930005C0D002633466542B341D417AD1AA3417E
:1009400002DB0020014670BD12053018514170BD18
:10095000C217C10F504010B54018CA079623002196
:1009600000F0ECF910BD10B500229623114600F0FE
:10097000E5F910BD0EB5C217C10F5040CA074018A7
:100980000021054B0293019200910A460B4600F0AC
:100990001BFA03B000BD0000330400000EB505498A
:1009A0000291002100910A460B46019100F00CFAD9
:1009B00003B000BD33040000C20F41004002012318
:1009C000400ADB05D207090EC0187F2901DA002092
:1009D0007047962903DC9623591AC84001E09639DE
:1009E0008840002AF4D04042704741004002012272
:1009F000400AD205090E80187F2901DA00207047CD
:100A0000962903DC9622511AC840704796398840CF
:100A10007047000070B5CD0F4A0009030123090B90
:100A20001B0519430B4BED070024520D9A4201DAC6
:100A3000002070BD074B34339A4203DC9A1A00F051
:100A40007FF802E00449511888402C43F1D040421D
:100A500070BD0000FF030000CDFBFFFF4A0009034B
:100A60000123090B1B051943094B10B5520D9A427E
:100A700001DA002010BD064B34339A4203DC9A1A87
:100A800000F05EF810BD03495118884010BD000009
:100A9000FF030000CDFBFFFFC20FD207400040085C
:100AA0000BD0C10D0723DB01C91840020905400A1C
:100AB0001143C208400711437047002001467047A8
:100AC00010B5002904DB0124E40740428C41214693
:100AD000002B04DB1C460123DB075242A341994251
:100AE00000D1904210BD0000CB0FDB07490010B5CC
:100AF000490802460A4307D00A0D07240903E40106
:100B0000090B121B002A01DC002010BDC900440F94
:100B10000C43C100E018D205801800F007F910BDA1
:100B200010B5202A04DB0146203A9140002010BD78
:100B3000914020239C1A0346E3401943904010BD86
:100B400010B5202A04DB0846203AD040002110BD11
:100B50000B46D340D0402024A21A914008431946A6
:100B600010BD10B5202A06DBCB170846203A1041ED
:100B7000C1170B4306E00B461341D0402024A21AB4
:100B800091400843194610BD3A2800D2303820233E
:100B900002469A43412A01D310463738884201D38E
:100BA0000020C043704700000268137851180160AC
:100BB0001846704710B5D16004495161044911626B
:100BC00000211161114600F0E3F910BDA90B0008E6
:100BD0007D0F00084268002A08D001680B78491C84
:100BE000002B03D0521E06C0184670470121C16079
:100BF000881E70474268002A0BD0C3680168002B2A
:100C000007D183688B4204D0491E521C06C00020C5
:100C100070470020C04370470FB400B589B00CA9DD
:100C200000910B990023CB60204B214A0693079239
:100C3000042201921F4A02921F4A089202466B4602
:100C4000002000F0D2FB09B008BC04B0184770B512
:100C500086B006460020C0430190002015460C4691
:100C60000091029104903246694604A8FFF7D4FF30
:100C7000024604982118002D05D0002801D008460E
:100C800000E020462860049800280DD0002A02DDEC
:100C90000098884208D0081B0190009432466946AB
:100CA000029404A8FFF7B8FF06B070BDD50B00088A
:100CB000F50B0008FFFFFF7F7D0F0008F7B5009CD4
:100CC0000F4600262578641C002D05D000F052F94F
:100CD0000068405DC007F5D12B2D02D02D2D18D016
:100CE000641E39462046029A00F0AAFC002F04D068
:100CF0003968A14201D100993960710502240029A7
:100D00000BDA4042002803DD0FF0A6F80460A007CC
:100D1000FEBD012080020643E3E70028F8DA0FF069
:100D20009BF804600048FEBDFFFFFF7F002904DA46
:100D3000401C490001D140084000704770B40024B5
:100D4000050C05D11024000402D1002921D0112462
:100D5000050E01D100020834050F01D10001241D48
:100D6000850F01D18000A41C002801DB4000641C19
:100D7000002908D020252E1B0D46F540A14000D0AB
:100D800001212943084301061B1B000ADB1D02D574
:100D9000002070BC7047DB05181880180029F8DAAD
:100DA000401C4900F5D170BC40084000704710B5A8
:100DB000002B08DA0024401C614192185B411A4361
:100DC00001D14008400010BDF0B51FB482B0054607
:100DD0000C0003D008460FF003F802E00FF000F813
:100DE00020300246009021462846FFF799FE049BDA
:100DF000059A04460F4618431143084314D0184679
:100E000010431BD0009840210A1A18460599FFF795
:100E100097FE05460E46009A05990498FFF780FE56
:100E2000084305D0012004E02046394607B0F0BD54
:100E30000020C11705430E432C43374300990E98F9
:100E40006305401A7905E40A00220C43FD0A0A30C2
:100E500002D500200146E9E70105101969410C9C03
:100E60000D9D00196941FFF7A2FFDFE7F8B50546C0
:100E7000480040080C46284304D06000184A400D42
:100E8000904201DD2846F8BD15493539884210DC0D
:100E900088420BDB290D200308432903014305D0B9
:100EA000E00F1049C00741180020F8BD002001469E
:100EB000F8BD161A4020821B28462146FFF730FE57
:100EC00007460091284621463246FFF739FE3A464A
:100ED000009BFFF76CFF3246FFF722FEF8BD0000D3
:100EE000330400000000F03F4A0009030123090B0E
:100EF0001B0519430A4B10B5520D9A4202DA002025
:100F0000014610BD064B34339A4203DC9A1AFFF7B0
:100F100017FE10BD034BD218FFF702FE10BD0000F4
:100F2000FF030000CDFBFFFF10B5002904DB012407
:100F3000E40740428C412146002B04DB1C46012380
:100F4000DB075242A3418B4200D1824210BD000018
:100F5000064C0125064E05E0E36807CC2B430C3C0C
:100F600098471034B442F7D3FFF7AEF8EC7201089B
:100F70000C730108004870475458010810B5044626
:100F8000FFF7F8FF0068005DC007C00F10BD00004C
:100F9000F3B58DB000200A9001200B900026084682
:100FA0000C300C4609906269012109989047051E92
:100FB0002ED0252D2DD0216A8847002818D06269AF
:100FC000012109989047216A88470028F7D1411EDE
:100FD00062690998904700E0761CA1690D988847DE
:100FE000216A88470028F7D1E1690D988847DAE738
:100FF000A1690D9888470746A84201D1761CD2E71F
:10100000E1690D9888477F1C02D10A98002877D0A3
:101010004AE1002762693D463946099890472A28E7
:101020000CD16269012109989047012506E00A2147
:101030004F433F18303FEBD4102005436269012134
:1010400009989047014630390A2903D29C498F42BA
:10105000DEDCECE7E90600D49A4F6C280AD04C2875
:1010600010D0682824D06A282ED074280CD07A2872
:101070000AD00DE062690121099890476C2823D0BD
:1010800004211CE020200543626901210998904752
:10109000A760656065284FD026DC582839D01ADC57
:1010A000452849D012DC252834D04128B0D143E06E
:1010B0006269012109989047682802D008210D43F0
:1010C000E6E70120C002DEE70220DCE7462833D055
:1010D00047282CD130E05B2870D061282CD06328C1
:1010E0006CD0642823D161E06F284FD009DC6628DA
:1010F00022D0672820D0692826D06E2817D12EE06C
:10110000CEE070284DD073286FD075284ED0782847
:101110000DD154E0A1690D9888470546252800D1D6
:101120006CE7E1690D9888476D1C00D16DE7BBE065
:101130000A224CE00A2252E0012023466A46C043BC
:101140000D9900F052F9A4E0284640210843606060
:10115000A807234601D5002239E000223FE0E80736
:1011600000D020E72068011D21600068290501D515
:10117000067018E7290701D5068014E7A90703D5EB
:10118000F117066041600EE706600CE72846402133
:1011900008436060A807234601D5082217E008220B
:1011A0001DE0494928460840606016E02846402175
:1011B00008436060A8072346BCD5B9E715E0284678
:1011C000402108436060A80707D52346102201206C
:1011D000C0430D99C046C0465BE023461022012063
:1011E000C0430D99FFF784F853E000210C910B46A2
:1011F0000091632802D05B2808D044E02079C00623
:1012000001D40120A060012000903CE0626901212E
:10121000099890475E2805D101200C90014662692B
:10122000099890472169002906D10B4601AA8F0031
:10123000491CD3510829FADB002835D0216900293F
:101240000ED1C117C90E09184A11930001AA9A18A4
:1012500049094901411A012013688840034313607A
:1012600062690121099890475D28E5D10C98002812
:1012700008D0002001AB81005A58401CD2435A507C
:101280000828F8DB01AB01202246C0430D99C04677
:10129000C04600280ADA401C06D10B98002803D06B
:1012A0000020C0430FB0F0BD0A98FBE7E90702D168
:1012B0000A99491C0A91361800200B9073E6000029
:1012C000CCCCCC0CFFFFFF7FF1F7FFFFFFB5087818
:1012D00089B01546FF2805D0491C2D2804D00022CE
:1012E000002407E000240BE00122F9E70A235C4315
:1012F0000419491C0878FF28F8D1002A00D064425C
:10130000002004902A7801462D2A01D02B2A0FD1E3
:101310006D1C2D2A02D00022049209E00122FBE775
:1013200000260A2233466D1CFEF73EFF3818714135
:101330002F78FF2FF4D10C9AA218069202460A4386
:1013400004D0FF23069A9133DA4205DA0021099886
:101350000A4606C00DB0F0BD0024B74AB54D26467A
:10136000079200F0C1F9029006980391002801DA73
:10137000474200E0074639050020AF4A001C5141B2
:101380000191009012E0F80707D022462B46304624
:101390000799FFF7E7F90646079122462B461046C4
:1013A0001946FFF7DFF904460D467F10002FEAD1FA
:1013B0000698019B0028009A0399029806DAFFF725
:1013C00039FA3246079BFFF735FA05E0FFF7CAF90D
:1013D0003246079BFFF7C6F9049A002A02D0012281
:1013E000D2075140099A03C2B4E7FFB591B000207B
:1013F00009900025ED432E209E685C681F460190F1
:10140000B9696D1C129888470090396A884700288E
:10141000F6D10098401C0AD00D20C0018443002E54
:1014200012DD00982B2809D02D280DD103E00020D3
:10143000C04315B0F0BD012080020443B9696D1CA2
:1014400012988847761E009003A9600501D52D20CB
:1014500000E02B206A461073491C0CA80F910290E3
:101460000AE0B9696D1C129888470090012040027B
:1014700004431398761E0560002E02DD0098302884
:10148000EFD001990098884246D18020044308E0BB
:101490000998401E09900120400204431399681CDA
:1014A0000860B9696D1C761E129888470090302834
:1014B000EED031E00199884205D1200603D4802086
:1014C0000443761E1EE000980EF0A0FD002826D0F2
:1014D00001204002044307A90F980331761E884279
:1014E0000BD200980F99303808700F98401C0F905D
:1014F000200607D50998401E03E0200602D409986B
:10150000401C0990A00502D51399681C0860B969B0
:101510006D1C129888470090002ECBDC59E0002EFD
:1015200057DD0098652801D0452852D1A00550D537
:10153000032000028443B9696D1C761E1298884707
:101540000090002E0CDD2B2804D02D2808D1FF2080
:1015500001300443B9696D1C12988847761E0090CB
:10156000E00501D52D2100E02B21029801700298A1
:10157000401C0290019025E00120400204430EA986
:1015800002980131761E88420ED2009802993038B6
:101590000006000E087003D10299019881420AD911
:1015A0000298401C029006E0E00501D5234801E0C6
:1015B000224840420990B9696D1C129888470090F2
:1015C00013980560002E04DD00980EF01FFD002822
:1015D000D2D1F969129888470F99FF2008700299B3
:1015E00003AA087000200A900B900CA90AA8099B76
:1015F000FFF76CFEA00502D40120C04319E72420A8
:10160000044209D0E00713D138680B9A0A99031DE8
:101610003B60006806C00BE00B990A98FFF764FA7C
:101620000146E00704D13868021D3A600068016095
:101630002846FEE6000014400000F03FF1D8FFFF0E
:10164000F7B582B0029C00272078641C15460197EC
:10165000302802D0002D15D015E020780127641C19
:10166000782804D0582802D0002D09D00BE0002D96
:1016700001D0102D07D1002710252078641C02E02E
:10168000082500E00A250026009610E000990127B1
:1016900069430818020C294680B2714300908E18E5
:1016A0003804864201D3012001902078641C294629
:1016B000FFF76AFA0028E9DA0398002805D0002F1E
:1016C00001D0641E00E0029C04600198002806D04E
:1016D0000EF0C2FB02210160C81E05B0F0BD0099EA
:1016E00030040843F9E700000EB5054A02920022D3
:1016F000009213460192FFF767FB03B000BD0000A4
:101700003304000070B58C180578401C6B075B0F24
:1017100001D10378401C2A1106D10278401C03E055
:1017200006780E70401C491C5B1EF9D12B0705D4AE
:101730000023521E0DD40B70491CFAE70378401C9D
:10174000CB1A921C03E01D780D70491C5B1C521EC5
:10175000F9D5A142D8D3002070BD30B5054600248C
:1017600000F01EF801214800285A491C0419C9B28A
:101770000529F8D3A003000C30BD000038B504469D
:10178000064805490068FEF7B5FC604300E0401ECE
:1017900000900028FBD138BD40420F00800000209F
:1017A000F0B500220125002105239F1A0BE04C0013
:1017B000A446035B26187488A34203D965464453A4
:1017C00073800025491C8F42F1DC002D02D1521C90
:1017D000052AE7DBF0BD0000F8B504460068816823
:1017E0008907890F012902D10168C90722D18168BF
:1017F000114A10261140012500290ED18168294384
:1018000081600120FFF7BAFF03F072FC07460CE08D
:1018100003F06EFCC01B0A2807D9A06D3043A065F9
:10182000E06D2843E0650120F8BD20680068C043F2
:10183000C007EDD10020F8BD17000080F0B589B0D9
:101840000C46074610220021684611F005FE694645
:10185000224608460EF08BFF684600788726010670
:10186000684600290FDA00214318425C5B78520079
:10187000DB091A434254491C0F29F5DBC17B0246A0
:10188000490071400DE000214318425C5B78520032
:10189000DB091A434254491C0F29F5DBC17B024680
:1018A0004900D173E21DF9325169102912D0017833
:1018B00009061BD500214518435C6D785B00ED09D6
:1018C0002B434354491C0F29F5DBC17B03464900D8
:1018D000714019E000216218FF3201325378455CF3
:1018E000491C6B4053701029F5DB26E00021451898
:1018F000435C6D785B00ED092B434354491C0F2971
:10190000F5DBC17B03464900D973E11D556980238E
:10191000FA316B54002500E05D5453695B1C536140
:10192000102BF9D300216218FF3201325378455C45
:10193000491C6B4053701029F5DB002162181046DA
:10194000FF32E0300132437C5278491C53404374EB
:101950001029F3DB21461022F13104A811F064FDB7
:101960002246394604A80EF002FF102200216846E4
:1019700011F072FD09B0F0BD10B50446102200212F
:10198000F13011F069FDFF20002115300151F022E6
:10199000204611F061FD10BD0B4610B50246102126
:1019A00018460EF00FFF10BDF0B50446FF308BB0A7
:1019B0000F4601300890E11D4069FA31009110395D
:1019C00015460791002843D010210E1AAE4200D3CD
:1019D00016460099B2B24018394611F025FD089814
:1019E000089940698019486110283AD3B54238D027
:1019F000002162181046FF32E0300132437C5278F9
:101A0000491C534043741029F3DB079922460846CA
:101A10000EF0ADFEBF19AD1B1AE000202118E03119
:101A20004A7C3B5C401C5A404A741028F6DB10226A
:101A300002A8079911F0F8FC02A9224608460EF008
:101A400096FE102202A9079811F0EEFC103D103707
:101A5000102DE2D8AAB23946009811F0E5FC08989A
:101A600045610BB0F0BD0000F7B523498022897BAA
:101A7000214B511ACDB2597B9B7B8026F31A0A4623
:101A8000DEB2871E491C0124C9B2761E3B000EF04F
:101A9000D6F909060C060C120C06062B3000164B64
:101AA000AA4224D2154CA05403E0134BB24215DBDA
:101AB0001DE059730DE0104EAD1EAA4217DA0F4B10
:101AC000985401985854491CC8B202991954401CA2
:101AD0007073002408480121017308E0074CA054EA
:101AE00001986054491CE4E7034BAA42F6D3204610
:101AF000FEBD0220FEBD00002C020020DA110020F5
:101B000010B5164814490160154941600121C160B2
:101B1000002101618161C1610162F0218160FE21CA
:101B2000416103F013FB002806D00EA00DF0FAFC73
:101B30000028FAD102F0B6F9084803F007FB0028A4
:101B400004D112A00DF0EEFC0028FAD100210348C8
:101B500003F0D4FA10BD0000005400403806002005
:101B6000563EA1104572726F723A2048595439336B
:101B700039204932432062757320496E69742066AA
:101B800061696C7572650D0A000000000D0A485904
:101B900054393339204932432062757320496E69C4
:101BA0007420737563636573730D0A0010B50E4876
:101BB0000C4901600D4941600121C16000210161B2
:101BC0008161C1610162F0218160FE21416103F008
:101BD000BDFA002801D002F065F90021024803F0A7
:101BE0008DFA10BD00540040B4050020563EA110EF
:101BF00000B587B014216846FEF72CFB0948C26A7D
:101C000002210A43C262C06A084005901020009079
:101C100003200190002002906946034803F09AF9DE
:101C200007B000BD001002400004005010B586B09F
:101C300014216846FEF70EFB0D48C26A02210A43D2
:101C4000C262C06A0B4C0840059010200090012031
:101C5000019000200290032003906946204603F083
:101C600079F900221021204603F03BFA06B010BD9E
:101C70000010024000040050F0B585B011F03EFFA6
:101C80008B48FF260178F53600277500894C01291D
:101C90000ED003290CD0884B02297ED0052975D09F
:101CA0000446072973D00929FCD0282970D0F7E011
:101CB00082A00068019082A00068029000F010FEEF
:101CC0000DF02AFB039006E003980DF02BFBB042C9
:101CD00001D3A77008E0012301AA8021794800956B
:101CE00003F01AFB0028EFD1012301AA80217548D7
:101CF000009503F011FB002804D10120A07072A010
:101D00000DF010FCA0780028D1D16E4803F0E6FC5D
:101D100000F008FE0DF000FB039006E003980DF0C4
:101D200001FBB04201D3A77008E0022302AA882178
:101D30006B48009503F0F0FA0028EFD1022302AAC5
:101D400088216748009503F0E7FA002804D10220B3
:101D5000A07064A00DF0E6FBA0780028A7D1604831
:101D600003F0BCFC06F034FA10F068FC054606F0FF
:101D700005FA6800000E04D00320A0705FA00DF0EB
:101D8000D1FBA078002892D103E006E051E070E09A
:101D90007DE061A00DF0C6FB82E0039700222021C8
:101DA0001F46184603F09DF9FFF700FF12F0C0FD33
:101DB000012603A8009033460022C4210196029513
:101DC0005C4803F0E1FB12F0B3FD5B49884202D2AC
:101DD00066705AA021E0574803F080FC02F07AFABE
:101DE00002F0B6FA01210520C902000703F074F9D8
:101DF000002806D1022060700DF0DEF958A00DF029
:101E000091FB02F049FA02F085FA6078002806D1C9
:101E100010F066FE012808D05EA00DF083FB0122C1
:101E20002021384603F05DF93AE00320607064A099
:101E3000F3E7002220211C46184603F052F90DF06A
:101E400091FF0DF053FF02F01DFB304602F09BFFA7
:101E500002F018FB0DF068FF0DF02AFF012220218F
:101E6000204603F03EF95FA00DF05CFB0028FAD19C
:101E700016E06248007802F029F96148007802F023
:101E800065F9207809280BD1FFF7B2FE08E002F0CF
:101E9000B1F95C4803F022FCFFF732FE02F096F93C
:101EA0005948007802F0D2F802F0D8F905B0F0BD38
:101EB0004F0100208800002000040050E7000000CF
:101EC000F32D0000CC0400200A0D557365205365E6
:101ED0006E736F722069732053544832780D0A0074
:101EE000180500200A0D5573652053656E736F72D7
:101EF0002069732053544833780D0A000A0D557336
:101F0000652053656E736F722069732042483137C4
:101F100035300D0A000000000A0D4E6F2049324393
:101F200020646576696365206465746563746564BF
:101F30000D0A0000B40500200F2700000A0D55739C
:101F4000652053656E736F72206973204C4944415C
:101F5000525F4C6974655F763348500D0A0000008B
:101F60000A0D5573652053656E736F722069732077
:101F7000756C747261736F6E6963206469737461E8
:101F80006E6365206D6561737572656D656E740D48
:101F90000A0000000A0D4E6F2064697374616E635D
:101FA00065206D6561737572656D656E742064651D
:101FB000766963652064657465637465640D0A0001
:101FC0000A0D5573652053656E736F722069732017
:101FD00054462D7365726965732073656E736F72F5
:101FE0000D0A00000A0D5573652053656E736F72FC
:101FF0002069732048583731310D0A005101002003
:10200000520100203806002050010020F0B58DB0AC
:102010000D46044605F08EFCFA4E012D27D1FAA09C
:102020000DF080FA0028FAD1F84F3888FEF7B6FC98
:102030000022F74BFEF7FEFB02460B46F5A00DF023
:1020400071FA0028F1D13078F64F06281ED0072803
:1020500023D0092845D0F44F01218903384603F0E5
:102060003BF80146F1A00DF05DFA0028F4D106F02E
:102070009BFBE448007803286ED0012000F06CFF41
:10208000EF4EF04F6060012D45D058E0EEA039686A
:102090000DF048FA0028F9D1E9E7E34F012189035F
:1020A000384603F019F80146E0A00DF03BFA00288D
:1020B000F4D10121C903384603F00EF80146E7A028
:1020C0000DF030FA0028F4D105273F0710213846DB
:1020D00003F002F80146E6A00DF024FA0028F5D13D
:1020E000C5E7D9A039680DF01DFA0028F9D1E44FF1
:1020F000E4A039680DF016FA0028F9D105273F074A
:102100001021384602F0E8FF0146D9A00DF00AFA86
:102110000028F5D1ABE7B0420CD8B8420ADC6068C1
:10212000FEF7BAFC02460B46DBA00DF0FBF90028D7
:10213000F5D104E0DEA00DF0F5F90028FAD1B148A0
:102140000078012808D0032806D0042864D0092884
:1021500062D0282875D0DEE0DB488178002906D0DF
:10216000012908D0022924D0032941D0D3E0D7483F
:10217000E0612062CFE0D64803F0C8FA0AF0CEFC56
:1021800006460AF061FCE6612062012DE3D1206A77
:10219000FEF782FC06460F46E069FEF77DFC02462C
:1021A0000B46CCA0019700960DF0BCF90028EED1AB
:1021B000B1E0D14803F0AAFA12F0DEF9CF48012DC0
:1021C0000068E061CE4800682062C4D1206AFEF752
:1021D00063FC06460F46E069FEF75EFC02460B46CE
:1021E000C8A0019700960DF09DF90028EED192E06D
:1021F0000121017005F0ECFF10F020FAFEF7F5FB6D
:10220000A08405F0BBFF012DA5D1A18CC6A00DF0C7
:1022100089F90028F9D17EE0022000F09DFEA0603F
:10222000012D14D1B0420DD8B8420BDCA068FEF7E6
:1022300033FC02460B46C0A00DF074F90028F5D11E
:1022400005E01FE0C2A00DF06DF90028FAD10320CF
:1022500000F082FEE060012D5DD1B0420CD8B842A2
:102260000ADCE068FEF718FC02460B46BEA00DF043
:1022700059F90028F5D14EE0C1A00DF053F900281E
:10228000FAD148E0C44803F041FA01F0B3FF012756
:102290000526BF02360700223946304602F021FFEC
:1022A000322002F070FD01223946304602F019FF5B
:1022B000322002F068FD0026834F06E014207043B0
:1022C0000019303012F08EF8761CF8788642F5DB73
:1022D0000121052000228902000702F002FF01F01F
:1022E00075FF012D17D1002611E014207043071946
:1022F000786BFEF7D1FB02460B46039102900096E5
:102300003146A6A00DF00EF90028F1D1761C6E48DA
:10231000C0788642E9DBAC4F388800281BD0002209
:102320002021414802F0DDFE00260EE0642002F08C
:102330002AFD63213046FDF7DDFE002903D1002E82
:1023400001D006F031FA761CB6B264213888FDF768
:10235000D1FEB042EAD82B4904AE087803284BD00E
:10236000082849D009283BD0FFF760FC002701204E
:1023700005F020FA790070520A2002F004FD7F1C5B
:10238000FFB2062FF3D301221021274802F0A9FE45
:1023900004A8FFF7E2F94C4F1C49B880098848436C
:1023A0008A49FDF7BDFEFEF7D3FA2061012D0DD15C
:1023B0002069FEF771FB0022154BFEF73BFA02463F
:1023C0000B4683A00DF0AEF80028F1D10D4800783F
:1023D000022806D003280FD008280DD005280CD0DD
:1023E000F1E17878012809D0022808D0032807D025
:1023F0007C48E0842085E6E144E1D1E1F4E008E1B5
:102400002AE100004F0100200D0A0000C600002054
:1024100000408F404261743A252E336620560D0AE3
:1024200000000000D8000020000400505042313469
:102430005F7374617475733A25640D0A00000000BF
:1024400000005CC20000FA42504231345F636F7595
:102450006E74313A25750D0A000000005042313586
:102460005F7374617475733A25640D0A000000008F
:102470005041345F7374617475733A25640D0A00BA
:10248000DC000020504231355F636F756E74323A64
:1024900025750D0A00000000445331384232305F88
:1024A00074656D70313A252E31660D0A000000000A
:1024B000445331384232305F74656D70313A6E7515
:1024C0006C6C0D0A000000008800002000CCCC4598
:1024D000CC04002053485432785F74656D703A25FF
:1024E0002E31662C53485432785F68756D3A252E2C
:1024F00031660D0A00000000180500203800002099
:102500003C00002053485433785F74656D703A2561
:102510002E31662C53485433785F68756D3A252EFA
:1025200031660D0A000000004248313735305F6CDB
:10253000756D3A25640D0A00445331384232305FDC
:1025400074656D70323A252E31660D0A0000000068
:10255000445331384232305F74656D70323A6E7573
:102560006C6C0D0A00000000445331384232305F79
:1025700074656D70333A252E31660D0A0000000037
:10258000445331384232305F74656D70333A6E7542
:102590006C6C0D0A000000003806002048595439C0
:1025A00033395F74656D705F25643A20252E31667E
:1025B0002C094859543933395F68756D5F25643A81
:1025C00020252E31660D0A0030010020FF0F00008B
:1025D0004144435F5041303A252E336620560D0A60
:1025E00000000000FFFF0000884803F08FF806F0AD
:1025F00095FE06F04BFEE084012D09D1E08C0A2106
:10260000FDF778FD014682A00CF08CFF0028F5D183
:10261000D9E001F05FFE01F09BFE102003F022F9EB
:102620000DF09EFAE084102003F012F901F034FE60
:1026300001F070FE012DEBD17C4EE08CFEF7AEF97F
:1026400000223346FEF7F6F802460B4678A00CF05F
:1026500069FF0028F1D1B6E07B4811F041FD7A48CE
:10266000012D0188E184808820850AD1E08C0A212F
:10267000FDF740FD0146228D74A00CF053FF0028A9
:10268000F4D1A0E0FFF7D2FA0027012005F092F87C
:10269000790070520A2002F076FB7F1CFFB2062FF1
:1026A000F3D304A8FFF759F8714988807149098864
:1026B00048437149FDF734FDFEF74AF920613220A5
:1026C00002F061FB00276D4805F074F87900891964
:1026D00088810A2002F057FB7F1CFFB2062FF2D33D
:1026E00007A8FFF73AF86249C88062490988484359
:1026F0006149FDF715FDFEF72BF96061322002F00C
:1027000042FB00275E4805F055F8790089190883D7
:102710000A2002F038FB7F1CFFB2062FF2D30AA872
:10272000FFF71BF85249088152490988484352492A
:10273000FDF7F6FCFEF70CF9A061012210215148CB
:1027400002F0CFFC012D3ED14F4E2069FEF7A4F9D7
:1027500000223346FEF76EF802460B464B480CF05B
:10276000E1FE0028F1D16069FEF796F900223346B8
:10277000FEF760F802460B4645A00CF0D3FE002899
:10278000F1D1A069FEF788F900223346FEF752F82E
:1027900002460B4643A00CF0C5FE0028F1D112E022
:1027A0000DF0E0FA0DF0A2FA01F074FEE0620DF017
:1027B000BBFA0DF07DFA012D05D13FA0E16A0CF0C6
:1027C000B1FE0028F9D101F049FD052002F0DBFA45
:1027D000012105200903000702F07EFC207001F0B2
:1027E0001FFD012D05D1217838A00CF09BFE00289B
:1027F000F9D101222021234802F073FC012D03D1DD
:10280000FF20F53002F0BFFA0DB0F0BDB405002096
:102810006C696461725F6C6974655F64697374612B
:102820006E63653A256420636D0D0A000000244044
:10283000554C545F64697374616E63653A252E313B
:102840006620636D0D0A00009C06002054465F64FC
:10285000697374616E63653A256420636D2C544618
:102860005F737472656E6774683A25640D0A0000C0
:1028700088000020C6000020FF0F000002000004B6
:10288000100000100004005000408F40D0250008C8
:102890004144435F5041313A252E336620560D0A9C
:1028A000000000004144435F5041343A252E336616
:1028B00020560D0A0000000048583731315F576537
:1028C000696768743A256420670D0A005041313207
:1028D0005F7374617475733A25640D0A000000001B
:1028E00010B50E480C4901600D4941600121C160DD
:1028F000002101618161C1610162F0218160FE21DD
:10290000416102F023FC002801D001F0CBFA002144
:10291000024802F0F3FB10BD00540040CC0400203C
:10292000563EA11010B50E480C4901600D4941609A
:102930000121C160002101618161C1610162F02159
:102940008160FE21416102F001FC002801D001F00C
:10295000A9FA0021024802F0D1FB10BD005400404A
:1029600018050020563EA1101FB514A003C8019100
:10297000009014A103C90391029011F0C3FE11F05D
:1029800097FE01221149124804F05EFD7D20C0002F
:1029900002F0F9F90F4C0522234669460C4804F071
:1029A000F5FD322002F0EFF92346062202A908487D
:1029B00004F0ECFD322002F0E6F91FBD5A050700D5
:1029C000660000005A060301006400001D0100209B
:1029D000A40B0020FFFF000001780448024A43686E
:1029E000D154012101707047530D00204001002097
:1029F00010B5034811F07CFF02490020087010BD9B
:102A0000D92900084001002010B512480178012999
:102A10000ED100210170104B42689C5C012C08D043
:102A20000D2C09D00A2C07D07F2A0DD0521C4260F1
:102A300010BD4160082009E0002AF9D09954416096
:102A4000054810F055FE10BD4160062010F082F8D8
:102A500010BD000040010020530D00203EB50D4C7C
:102A60006946227A0A70227F8A70C870E06B0CF087
:102A700059FC0190606C0290E07F69464870207EAE
:102A800008F0D7FE218D606C4143081A616E401832
:102A900060663EBD2C020020FFB5044689B00020D0
:102AA00003900890069021891646002915D00190C0
:102AB000626904922069002A04D000290FD00A46D6
:102AC00092B20392002900D00E46E168884215D3E5
:102AD000039A61688018081A11E00220E7E722686B
:102AE0006568135C471CAF4202D3451B6D1C00E0B8
:102AF0003D46525D1202921C9A18E1E700200199AE
:102B0000751807950C994D43854201D2002102E0CA
:102B10000799FDF7EFFAC8B20199884208D9217FD9
:102B2000CA0700D106980690880701D5019800E0F1
:102B30000698002E6AD004994919081861688842DD
:102B400064D8002798E0039808186168884200D389
:102B5000401A20612189002911D121680E54616831
:102B6000401C814200D8401A2268310A1154616821
:102B7000401C814200D8401A6169891C616161680A
:102B80000D1AB54200D33546B5420DD0B54202D23A
:102B9000217F002908D0002D6AD0217FCA0730D0BC
:102BA0002189002913D019E039460A9A71438918FE
:102BB000226810182A46FDF734FB606940196061ED
:102BC00007990895002089B2751B039140E023689E
:102BD000FF22811E5A542168401E0A546069401920
:102BE0006061002008902189354600292AD120689B
:102BF00005702168280A487061690220891C61619A
:102C000020E089071ED52189002902D000200DB0BF
:102C1000F0BD2168821E8D542268290A431ED154BA
:102C200039460A9A71438918226810182A46FDF716
:102C3000F8FA6069401960610895A069751B401C2D
:102C4000A061D4E70199691889B20391002121613B
:102C5000002D0DD0089A0A993B46891822687343C3
:102C6000101859182A46FDF7DCFA606940196061AE
:102C7000A069401C7F1CA0610C982169874200D28A
:102C800061E7019808186168884200D3401A2168FA
:102C90004018BCE710B5029C01600021C1600161D1
:102CA00041614260816103810477A00703D5002B55
:102CB00001D0481E10BD002010BD0000F0B50389F2
:102CC0000022002B09D0002300240C804469002C32
:102CD00058D00289002A02D00DE00223F4E7C2682E
:102CE00004684668A55C571CB74200D3921B521C6F
:102CF000A25C1202AA1894B20C80027FD50729D0D8
:102D0000920727D4204A944202D10289002A0AD08D
:102D1000C468026994421DD90289002A1AD0456804
:102D20002C1B944216D24468C2684569A21AAA1A9A
:102D300042610022C2600289002A0AD10268012C85
:102D4000157802D86442641C00E00124125D12026E
:102D5000AA180A80C5684468EA18A24200D3121B68
:102D600006680F8892194669FF18F61B466106D05F
:102D700009886918C918A14200D3091BC16081697B
:102D8000491E81611046F0BDFFFF0000F0B50389C8
:102D90000022002B0AD0002700230B804369002B60
:102DA00042D00389C268002B02D00DE00227F3E76E
:102DB00005684468531CAE5CA342134600D31B1B3A
:102DC0005B1CEB5C1B02F3189CB20C80037FDD07DD
:102DD00023D09B0721D4154B9C4202D10389002BA1
:102DE0000AD0C46803699C4217D90389002B14D008
:102DF00045682C1B9C4210D200221B041B0C0BD1DB
:102E000043680468012B02D85B425B1C00E001238D
:102E1000E35C24781B021B190B80D1194268914294
:102E200000D3891A00680A181046F0BDFFFF0000A1
:102E3000FFB5002085B000900546064601900024AD
:102E4000770007980121C05BA14008422FD02819C4
:102E50000C2203905043089A1258002A27D0059A52
:102E6000002A01D1490722D008994118082002916F
:102E70000856021100070117069840B208F001FF3A
:102E8000002814D00298407A01010E980818C068F2
:102E9000002804D00198401CC0B2019007E0009ABD
:102EA0000F99039888540098401CC0B20090641C8D
:102EB000E4B2102CC5D31035761CEDB2F6B2102D4D
:102EC000BDD3109901980870009809B0F0BD0000BA
:102ED00030B587B014216846FDF7BCF90320019096
:102EE0000020029003204003104C0090E06A012172
:102EF0000843E062E06A0840059005206946000743
:102F000002F028F8E06A40084000E062606B0125AA
:102F1000AD052843606301F0E7FC01F0F5FC01F02A
:102F2000EBFC606BA843606307B030BD001002404B
:102F300010B511F07FFC10BD10B5046863608368A4
:102F4000102B036803D099600068C26010BD9A60BE
:102F50000068C16010BD0000F1B5002688B035469C
:102F60000596089800F070F800280BD0761CF6B291
:102F70006D1CEDB2032D01D2032EF2D3089800F0A0
:102F800071F851E0089800F033FA4420089900F0F5
:102F90003BFA274801F0F7FE089800F029FABE2016
:102FA000089900F031FA00246F46089800F0D6F92D
:102FB0003855641CE4B2092CF7D3082168460FF099
:102FC0003AFE6946097A8842D2D16846017840784B
:102FD000000200B2084308D5C043401CFDF7CAFCFC
:102FE0000022144BFDF7BEFB05E0FDF7C3FC0322F6
:102FF000D243FDF797FCFDF777FD04460E48844267
:1030000009D10598401CC0B205900228B0D108989B
:1030100000F028F809E0089800F024F807488442F6
:1030200002D80748844200DD064C09B02046F0BDB6
:10303000020300000000B0BF0000AA4200005CC212
:103040000000FA4233CB4C4510B50446012803D0AA
:10305000022C01D0032C01D100F090F9204600F0A1
:10306000ADF810BD30B500221949032387B00128FF
:1030700013D005240125240702281FD003281BD1C3
:10308000C86A2843C862C86A28400590081500909D
:1030900069460193029220460CE0CC6A0220044368
:1030A000CC62C96A01930140059108200090029208
:1030B0006946084801F04EFF07B030BDC86A284392
:1030C000C862C86AC007C00F059001204002DEE751
:1030D000001002400004005010B50022194986B0CB
:1030E000012813D0052301241B0702281FD0032821
:1030F0001BD1C86A2043C862C86A204005900815E1
:10310000009001926946029218460CE0CB6A0220B8
:103110000343CB62C96A01920140059108200090E7
:1031200002926946084801F015FF06B010BDC86A52
:103130002043C862C86AC007C00F05900120400242
:10314000DEE70000001002400004005010B501222C
:103150001849022386B0012812D00524240702282A
:103160001ED003281AD1C86A1043C862C86A10402A
:1031700005900815009069460393019220460BE0E4
:10318000C86A1843C862C86A694618400590082092
:10319000009003930192084801F0DCFE06B010BDD8
:1031A000C86A1043C862C86AC007C00F05900120F2
:1031B0004002DFE7001002400004005070B5002418
:1031C000012806D005252D0702282AD003284ED035
:1031D00074E00120FFF780FF394D04E0641CE4B285
:1031E000012000F0ABF90821284601F075FF002806
:1031F00002D0C82CF2D35FE0C82C5DD2002404E0DA
:10320000641CE4B2012000F099F90821284601F07D
:1032100063FF002802D1F02CF2D34DE0F02C4BD20A
:103220004CE00220FFF758FF0126760204E0641C00
:10323000E4B2012000F082F93146284601F04CFF4B
:10324000002802D0C82CF2D336E0C82C34D2002497
:1032500004E0641CE4B2012000F070F93146284615
:1032600001F03AFF0028D9D1F02CF2D324E003205A
:10327000FFF732FF0126B60204E0641CE4B201202D
:1032800000F05CF93146284601F026FF002802D004
:10329000C82CF2D310E0C82C0ED2002404E0641C29
:1032A000E4B2012000F04AF93146284601F014FF4B
:1032B0000028B3D1F02CF2D3012070BD002070BDE6
:1032C0000004005070B5012806D005242407022808
:1032D00013D003282BD025E00120FFF737FF1E4C29
:1032E00000220821204601F0FCFE0A2000F026F909
:1032F0000120FFF7F1FE08210EE00220FFF726FF74
:1033000001256D0200222946204601F0EAFE0A202E
:1033100000F014F9022018E0204601F0DDFE01283B
:1033200017D000222D2000F009F9104670BD0320AF
:10333000FFF70CFF0125AD0200222946204601F0CF
:10334000D0FE0A2000F0FAF80320FFF7C5FE294658
:10335000E2E70122E6E700000004005070B5002516
:1033600006462C463046FFF7ADFFA0402843641CBC
:10337000E4B2C5B2082CF5D3284670BD70B51A4D1D
:10338000012814D005242407022825D0032822D19F
:10339000FFF7DCFE00220126B6023146204601F08E
:1033A000A0FE284600F0CAF8012231460DE00120B7
:1033B000FFF7CCFE0D4C00220821204601F091FEC3
:1033C000284600F0BBF801220821204601F089FEC2
:1033D0000F2000F0B3F870BD0220FFF7B7FE002207
:1033E00001267602D9E70000EE020000000400503A
:1033F00010B50446FFF7C2FF2046FFF7DFFE214667
:10340000CC2000F001F810BDF8B5044601291FD00A
:1034100005252D07022949D0032946D10320FFF7AE
:1034200095FE00260127BF02E007C00F64080028B0
:103430006BD000223946284601F053FE082000F0E8
:103440007DF801223946284601F04BFE3A206AE019
:103450000120FFF77BFE384E0025E007C00F64080F
:1034600000280ED000220821304601F03AFE082044
:1034700000F064F801220821304601F032FE3A20C3
:103480000DE000220821304601F02BFE462000F01E
:1034900055F801220821304601F023FE022000F0F9
:1034A0004DF86D1CEDB2082DD7D3F8BD0220FFF703
:1034B0004DFE002601277F02E007C00F64080028A8
:1034C0000ED000223946284601F00BFE082000F0FD
:1034D00035F801223946284601F003FE3A200DE076
:1034E00000223946284601F0FCFD462000F026F86F
:1034F00001223946284601F0F4FD022000F01EF8B2
:10350000761CF6B2082ED7D3F8BD002239462846DD
:1035100001F0E7FD462000F011F801223946284667
:1035200001F0DFFD022000F009F8761CF6B2082E4B
:1035300000D279E7F8BD00000004005006E0002149
:10354000491CC9B20429FBD3401E80B20028F6D121
:10355000704710B504F094FA10BD0000F8B50446A9
:103560000120A070FF20E0700E480A21078838462D
:10357000FCF7C0FD0E460546642F0DD96421384680
:10358000FCF7B8FD070228460A21FCF7B3FD080145
:1035900007433743B8B203E028023101084380B241
:1035A0002080F8BD54010020F0B5ABB09F4D002441
:1035B00019AE284600F0F8FCA100641C2D1D7050C7
:1035C000112CF6DB00249A4D00940194A91C0820CC
:1035D0001A9B199A10F0D9FA1B98E8601F991E9847
:1035E000019100902946183110201D9B1C9A10F063
:1035F000CCFA239922980191009029462831102075
:10360000219B209A10F0C1FA2799019126980090E9
:10361000294638311020259B249A10F0B6FA0094E0
:103620000194294610310820299B289A10F0ADFA00
:103630007E4F5C370026384600F0B6FCB20005A984
:10364000761C3F1D8850142EF5DB02206946087257
:103650000598000E01D0012100E0002168460173A9
:1036600002A806F0A5F91621684601720598011412
:103670006846017302A806F09BF905986C4E00128B
:103680004036307505980127C0B201287ED06C7095
:103690006878012800D0002006F05CFC072069460D
:1036A00008720698000E00D00120087302A806F0E8
:1036B0007FF906980002000E012868D02C70694638
:1036C0000C720698000A087302A806F071F90698B1
:1036D000C0B201287ED034730A2468460472079869
:1036E000039002A806F064F9684604720899017410
:1036F00002A806F05DF9102168460172099803904E
:1037000002A806F055F91121684601720A98039043
:1037100002A806F04DF91221684601720B98039039
:1037200002A806F045F91321684601720C9803902F
:1037300002A806F03DF90321684601720D98039036
:1037400002A806F035F93B490E9808600F98000E64
:1037500000D00120364C3849283C60700F98374A19
:10376000000C20700F98000A08700F98F072204625
:103770002030109901601199090C11801199304A7B
:10378000090A117011990171129801E048E049E0AD
:103790002C49000E087012982B49000C08701298E2
:1037A0002A49000A08702A49129808701398294972
:1037B000000EE0711398000C2072139808800A2103
:1037C0001498FCF797FCFDF7CEF82349086015988C
:1037D000000C00E028E00006000E00D00120A070E0
:1037E00015981E49000AA072159860721698000C70
:1037F00008701B491698088017981A49000E08701F
:1038000017981949000C087017981849000A087091
:103810001749179808701749189808802BB0F0BD01
:103820006F7035E72F704AE7377355E704000808D3
:1038300070010020C80000202E010020C0000020E0
:10384000B50000202A0100202B0100202C010020BF
:103850002D010020300100205C000020B600002077
:10386000C2000020BA000020B9000020BC000020E7
:10387000BB000020C4000020FEB50220694608708D
:10388000684606F019F8002802D0A9A00BF04AFEFD
:1038900068460079162104066846017006F00CF8A7
:1038A000002802D0A2A00BF03DFE6846042141563C
:1038B000A54E142009043056214335460002403DF0
:1038C000084369782C460143283C20799F4A8300AD
:1038D000D150401C207107216846017005F0ECFFB3
:1038E000002802D092A00BF01DFE684600792978CE
:1038F00000060D04054300276846077005F0DCFF4D
:10390000002802D08AA00BF00DFE68460079317BBA
:1039100000022843014320798C4D8200A950401CAD
:1039200020710A216846017005F0C6FF002802D008
:103930007FA00BF0F7FD207901998200A950401C6F
:103940002071A079012805D00B216846017005F08F
:10395000B3FF0BE0A7710A2069460870684605F0BE
:10396000ABFF002802D072A00BF0DCFD6846017AA4
:1039700020798200A950401C2071102069460870EF
:10398000684605F099FF002802D069A00BF0CAFD37
:10399000207901998200A950401C207111206946AC
:1039A0000870684605F088FF002802D060A00BF080
:1039B000B9FD207901998200A950401C2071122084
:1039C00069460870684605F077FF002802D058A0C5
:1039D0000BF0A8FD207901998200A950401C2071AC
:1039E000132069460870684605F066FF002802D07B
:1039F0004FA00BF097FD207901998200A950401C3F
:103A00002071032069460870684605F055FF0028BC
:103A100002D047A00BF086FD207901998200A950C1
:103A2000401CC0B24A4982000968A9506278F17A04
:103A30001206484B114322781B7812041B02401CCB
:103A40001A43C0B211438200A950401CC0B23E4983
:103A5000830048390A68EA503F4A404B12881B7875
:103A600012041B020979401C1A43C0B20A438100A8
:103A70006A503B493B4A09781278090612041143FF
:103A8000394A401C1278C0B212021143374A1278E8
:103A900011438200A950E179227A090612041143E8
:103AA000334A401C1288C0B211438200A950401C06
:103AB000C6B231482F490068FCF725FDFCF795FF99
:103AC000B1006850A178A27A090412021143627A07
:103AD000761CF0B211438200A9502849284A09787F
:103AE0001288401C0904C0B211438200A950254924
:103AF000254A09781278090612041143234A401C0A
:103B00001278C0B212021143214A12781143820086
:103B1000A950401CC0B21F4982000988A950401C0E
:103B2000C2B2227109491C4800F0C4F82771FEBDD9
:103B30004C4F52414D41432053544154555320451D
:103B400052524F520A0D0000B0010020D40D002047
:103B5000C80000202E010020C0000020B500002079
:103B60002A0100202B0100202C0100202D01002023
:103B700030010020000020415C000020B600002041
:103B8000C2000020BA000020B9000020BC000020C4
:103B9000BB000020C40000206000080810B5164CCF
:103BA0000022A11C082010F00BFA00210120E2687D
:103BB00010F006FA214600221831102010F000FA09
:103BC000214600222831102010F0FAF92146002267
:103BD0003831102010F0F4F921460022103108206D
:103BE00010F0EEF9283C62790449054800F062F8CB
:103BF0000020607110BD000070010020540E0020F4
:103C00000400080870B50D4DEFF3108472B601F092
:103C100007F90A4E7836284601F0BAF8002804D091
:103C200084F3108806A00BF07DFC2D1DB542F2D365
:103C300001F0C2F884F3108870BD0000600008082D
:103C40006572726F7220696E20454550524F4D204B
:103C50004572617365206F7065726174696F6E0A79
:103C60000D00000070B50546EFF3108472B601F048
:103C7000D7F8284601F08CF8002804D084F3108887
:103C800003A00BF04FFC01F097F884F3108870BD8F
:103C90006572726F7220696E20454550524F4D20FB
:103CA0004572617365206F7065726174696F6E0A29
:103CB0000D000000F7B5174600260546EFF3108407
:103CC00072B601F0ADF810E00198B10042582946F3
:103CD000022001F07BF8002805D084F3108806A0AC
:103CE0000BF020FC03E02D1D761CBE42ECDB01F046
:103CF00063F884F31088FEBD6572726F7220696E7E
:103D000020454550524F4D205772697465206572A9
:103D1000726F720D0000000010B5012001F00EF965
:103D2000022001F00BF910BD10B5042001F006F9D6
:103D3000082001F003F910BDF8B54B4C60694B4FFA
:103D4000C00601264A4D002818DA4A4800780028A3
:103D500010D0387800280DD02878072801D00928FD
:103D600008D14548102106600520000701F0B4F98C
:103D7000424908701020606101F0DCF8202001F059
:103D8000DDF8402001F0DAF8802001F0D7F8FF20BC
:103D9000013001F0D3F80120400201F0CFF80120FA
:103DA000800201F0CBF80120C00201F0C7F8012029
:103DB000000301F0C3F80120400301F0BFF860697F
:103DC000400421D52E480178002918D038780028E1
:103DD00015D028782B4A062801D0092807D10229B6
:103DE00023D0032921D0062809D0092807D0012192
:103DF00089032548166001F06FF9244908700120F5
:103E00008003606101F096F8606900042AD52048BB
:103E10000078002821D0397800291ED02A781D4941
:103E2000072A08D0092A0FD017E01B48166001683E
:103E3000491C0160E3E70E600121C903124801F04B
:103E40004BF91649087008E0022801D0032804D174
:103E500013480E600168491C01600120C0036061C5
:103E600001F068F8F8BD000000040140A500002042
:103E70004F01002052010020D40000209B000020B0
:103E800050010020CC0000200004005099000020C8
:103E900051010020D0000020D80000209A0000200E
:103EA000DC000020FEE7000010B5214A00219069E7
:103EB000C305204804D54169022319434161911586
:103EC00093699B0505D5436901242343436163023C
:103ED000194393695B0505D543690824234343616E
:103EE000E301194393691B0505D543690424234362
:103EF00043616302194393699B0405D54369102408
:103F0000234343616302194393699B0304D54469C6
:103F100020231C43446119439369DB0305D543699E
:103F2000402423434361A0020143916110BD00007E
:103F3000002002408406002070B5054601F0D8F844
:103F40000646184C0AE0681C08D0002D04D001F089
:103F5000CFF8801BA84201D9032070BDA069C0071B
:103F6000F1D1A069800701D50220A061A069C00538
:103F700011D4A06980050ED4A06940050BD4A069B6
:103F8000000508D4A069800405D4A069800302D488
:103F9000A069C00303D5FFF787FF012070BD002093
:103FA00070BD000000200240016802484160406886
:103FB000704700000000002070B594B0214D00242F
:103FC00002AE2846FFF7F0FFA100641C2D1D7050C3
:103FD000112CF6DB00241C4D00940194A91C082030
:103FE000039B029A0FF0D1FD0498E86008990798A6
:103FF00001910090294618311020069B059A0FF078
:10400000C4FD0B980C99019100902946283110208D
:104010000A9B099A0FF0B9FD10990F980191009031
:104020002946383110200E9B0D9A0FF0AEFD29461F
:104030000094019410310820129B119A0FF0A5FDF5
:1040400014B070BD009101087001002010B586B059
:10405000044614216846FCF7FDF81748C26A02219D
:104060000A43C262C06A08400590480300900021DC
:104070001248002C06D0012C0BD0022C0BD0032CA4
:104080000BD00DE001910291694600F063FF06B08C
:1040900010BD0B4A02E00B4A00E00B4A019202916C
:1040A000694600F057FF00220221072001F0E4FBDF
:1040B000072001F0D7FBEAE700100240000400509F
:1040C00000003110000021100000111010B586B062
:1040D000044614216846FCF7BDF81748C26A02215D
:1040E0000A43C262C06A084005908803009000211C
:1040F0001248002C06D0012C0BD0022C0BD0032C24
:104100000BD00DE001910291694600F023FF06B04B
:1041100010BD0B4A02E00B4A00E00B4A01920291EB
:10412000694600F017FF00220221072001F0A4FBDE
:10413000072001F097FBEAE700100240000400505E
:1041400000003110000021100000111010B586B0E1
:10415000044614216846FCF77DF81848C16A01221C
:104160001143C162C06A00211040059010200090E8
:1041700005200007002C06D0012C0BD0022C0BD000
:10418000032C0BD00DE001910291694600F0E2FE94
:1041900006B010BD0A4A02E00A4A00E00A4A01924B
:1041A0000291694600F0D6FE00220221072001F0AC
:1041B00063FB072001F056FBEAE700000010024015
:1041C00000003110000021100000111000B585B072
:1041D00014216846FCF73EF80320019000200121DD
:1041E00002908902052000916A46000703F048FB0F
:1041F00005B000BD00B585B014216846FCF72AF86B
:1042000001200190029003200121039089020520E2
:1042100000916A46000703F033FB05B000BD0000C3
:1042200000B587B014216846FCF714F80A48C16A43
:1042300001221143C162C06A110310400091059030
:10424000032001900020029005206A46000703F039
:1042500017FB07B000BD00000010024000B587B09A
:1042600014216846FBF7F6FF0A48C16A0122114390
:10427000C162C06A110310400091059000200190B6
:104280000220029005206A46000703F0F9FA07B001
:1042900000BD00000010024000B587B01421684640
:1042A000FBF7D8FF0A48C26A02210A43C262C06A09
:1042B00008400590880200900320019000200290A1
:1042C00005206946000700F045FE07B000BD00006C
:1042D0000010024000B587B014216846FBF7BAFF12
:1042E0000B48C26A02210A43C262C06A6A46084099
:1042F0008902009105900020019001200290032086
:1043000003900520000703F0BBFA07B000BD0000D2
:104310000010024000B587B014216846FBF79AFFF1
:104320000948C16A01221143C162C06A694610404E
:104330000590100300900320019000200290034894
:1043400000F008FE07B000BD00100240000400505D
:1043500000B587B014216846FBF77CFF0A48C16AA4
:1043600001221143C162C06A1103104000910590FF
:10437000002002900320019203906A46034803F054
:104380007FFA07B000BD000000100240000400509A
:104390000649800009580648091803D0C14203D0D5
:1043A0000020704701207047022070474C540108DC
:1043B000702FFCFF10B5094A0021CB00D45884426D
:1043C00007D89B189B68834203D9C80080180079DE
:1043D00010BD491CC9B21529EFD3FEE77C4A01087C
:1043E00030B593B038216846FBF734FF012500242F
:1043F000059508200A940090684601F041FD0028C8
:1044000001D0FFF74FFD1B491B4812C004601B4938
:1044100084604160083802F02BFD002801D0FFF7CE
:1044200041FD1421144802F00EFC0C2010900E9453
:1044300000220EA90F9511940F4802F073FC00287A
:1044400001D0FFF72FFD00210B4802F03FFD0028AF
:1044500001D0FFF727FD0A4CA0680228FCD10021FB
:10446000054802F057FD044802F0ECFC606813B008
:1044700030BD000000080140F0020020FFFF0000F6
:104480000800002010B503F073FD0149486010BD1D
:104490005400002070B5002503F06AFD074C206031
:1044A0006168884208D0401AFCF752FAA168FCF70C
:1044B00067F8FCF781FA0546284670BD54000020D5
:1044C000F8B5054604464035287D0026012808D069
:1044D00001202875206881688907890F01290ED17C
:1044E00001E00220F8BD0168C90708D0A06D2021B5
:1044F0000843A0650126002028753046F8BDA16D4F
:10450000FF220132914302221143A165C16889074C
:10451000890F0091C16889088900C160206881689D
:1045200092071143816000F0E3FD07460EE000F0C2
:10453000DFFDC01B0A2809D9A06D02218843102184
:104540000843A065002028750120F8BD2068806818
:104550000028ECDB2068C168009A1143C160A06D9F
:1045600080088000401CA065C5E70000F8B506463D
:104570000D464036317D01290DD00121317501688C
:104580008A68520709D5816D202211438165002078
:1045900030750120F8BD0220F8BD174B6A68D805B8
:1045A00047109A42154C8A6A2B6812D05B035B0B4A
:1045B0001A438A622968490305D5A1680143A160AD
:1045C0000A20FDF7DBF82868800312D5A06838437D
:1045D0000EE05B035B0B9A438A622968490302D5AC
:1045E000A1688143A1602868800302D5A068B84310
:1045F000A06000203075F8BD0110000000270140C8
:104600000068006C7047000070B5040006D0A06D13
:10461000264600254036002802D006E0012070BD65
:10462000E5653575204600F0D1F8A06DC00603D4CD
:1046300021688868400705D5A06D10210843A06552
:104640003575EBE7A06DFF22013290430222104343
:10465000A06588688207920F5A48012A02D10A6829
:10466000D2072BD1032362689B079A4205D05B4295
:104670009A4202D05B009A4209D10A6992009208DC
:104680000A6121680A6963681A430A610CE00A69D1
:10469000920092080A6181680F229204914381601E
:1046A00081686268114381602168CA6818239A434F
:1046B000CA602168CA68A3681A43CA608168012277
:1046C0005206914381608168228F520611438160B6
:1046D00020688168C90004D481680122120711434F
:1046E00081602068C168384A1140C1602169E06872
:1046F000022923D000210843216A226B490352007A
:1047000011430843616B0843A16989030843E169C8
:10471000C90308432168CA681043C860A06A0146FB
:10472000FF39C23905D0E16A08432168CA681043DD
:10473000C860606A0121012802D00BE00421DAE799
:10474000206A002823D0A06D20221043A065E06DD0
:104750000843E065206C012820681FD00169C90763
:1047600003D0016949084900016120684169C9080D
:10477000C900416120684169E26B11434161E5650F
:10478000A06D80088000401CA065002070BD2068DE
:10479000C26801231B041A43C260DBE70269FF23DE
:1047A0009B009A43026120680269636CE66C1A43BD
:1047B000A36C33431A430261206802690A43026111
:1047C000D3E70000002701401902FEFF7047F8B54B
:1047D00004464069254640350E4608280BD020681F
:1047E000C068C00709D0A06D20210843A065002043
:1047F00028750120F8BD082700E00C2700F078FCA0
:10480000009011E0701C0FD0002E05D000F070FC5D
:104810000099401AB04207D9A06D04210843A06551
:10482000002028750320F8BD206800683842E9D0D0
:10483000A06D012149020843A0652068C1680905EF
:104840008A0F0C21002A1AD1226A002A17D1026885
:10485000120714D5826853070122002B08DB436836
:104860008B434360A06D130298431043A06506E09C
:10487000A06D20231843A065E06D1043E065A0699A
:10488000002801D1206801600020F8BD70B5044601
:10489000216800208968490721D425464035297DB3
:1048A00001291CD001212975E169012904D0204684
:1048B000FCF792FF002811D1A16D0A4A1140FF2296
:1048C00001321143A1650021E165297522681C218F
:1048D000116021688A6804231A438A6070BD02202F
:1048E00070BD0000FEF1FFFF024841684908490021
:1048F00041607047005801400248416804229143DA
:1049000041607047005801400248416802229143CB
:10491000416070470058014070B5002402462032C3
:104920005179022903D00421C16301243CE00168CC
:104930000B680E25AB430B6001680B685B085B00DE
:104940000B601A4B0168994201D1012121E0174BFC
:104950001433994201D110211BE0144B28339942A2
:1049600001D1891515E0114B3C33994201D18914CD
:104970000FE00E4B5033994202D10121090408E0A7
:104980000A4B6433994202D10121090501E001215A
:104990000906064B083B5960012151710021117134
:1049A000816B002900D08847204670BD0800024076
:1049B000F8B504469D4801689C4A9C4E9B4F0832BE
:1049C000206813041C363037904201D108221EE0C3
:1049D000B04201D180221AE0B84202D10122D202B3
:1049E00015E0924A4432904202D10122D2030EE0F5
:1049F0008E4A5832904201D11A4608E08B4A6C32F6
:104A0000904202D10122D20501E00122D2062546C0
:104A10001140203500293BD00168090738D50168CD
:104A2000082291430160814920680831884201D100
:104A300008201EE0B04201D180201AE0B84202D125
:104A40000120C00215E079494431884202D1012099
:104A5000C0030EE075495831884201D1184608E07C
:104A600072496C31884202D10120C00501E0012069
:104A7000C0066E494860E06B01210843E0630420F2
:104A8000687100202871616B002901D02046884799
:104A900066480168654A206808321315904201D1C2
:104AA00004221EE0B04201D140221AE0B84201D1F6
:104AB0001A4616E05D4A4432904202D10122920326
:104AC0000FE05A4A5832904202D10122920408E083
:104AD000564A6C32904202D10122920501E0012235
:104AE0009206114238D00168490735D50168890618
:104AF00003D4026804218A4302604C4920680831CB
:104B0000884201D104201EE0B04201D140201AE0C9
:104B1000B84201D1184616E044494431884202D1D6
:104B2000012080030FE041495831884202D1012021
:104B3000800408E03D496C31884202D101208005A3
:104B400001E0012080063949486005206871216B29
:104B5000002901D02046884734480168334A20683C
:104B600008325315904201D102221EE0B04201D119
:104B700020221AE0B84201D11A4616E02B4A4432EC
:104B8000904202D1012252030FE0284A583290424B
:104B900002D10122520408E0244A6C32904202D130
:104BA0000122520501E00122520611423CD0016867
:104BB000890739D50168890603D401680222914327
:104BC00001601A4920680831884201D102201EE0A4
:104BD000B04201D120201AE0B84201D1184616E0B7
:104BE00012494431884202D1012040030FE00F49AD
:104BF0005831884202D10120400408E00B496C3151
:104C0000884202D10120400501E001204006074909
:104C10004860E06BE0630120687100202871E16A60
:104C2000002901D020468847F8BD0000000002405E
:104C300070B5002805D0034620335979002902D0E9
:104C400003E0012070BD002119710221597104682F
:104C500022683749C5680A40816846692943056961
:104C60003543294385692943C5692943056A294391
:104C7000114321602F492F4C02687831A24206D19E
:104C80008A6A120912018A628A6A406849E0294CDC
:104C90001434A24207D18A6AF024A2438A628A6A43
:104CA000406800013DE0234C2834A24208D18A6AC2
:104CB0000F242402A2438A628A6A4068000230E01C
:104CC0001C4C3C34A24208D18A6A0F242403A2431C
:104CD0008A628A6A4068000323E0164C5034A2427C
:104CE00008D18A6A0F242404A2438A628A6A8088CF
:104CF000000416E00F4C6434A24208D18A6A0F24E3
:104D00002405A2438A628A6A8088000509E08A42F3
:104D100009D18A6A0F242406A2438A628A6A00792A
:104D2000000602438A6201205871002070BD000015
:104D30000FC0FFFF08000240F8B504462030057997
:104D4000012D1ED0012505710226467120680768D5
:104D5000AF4307602046FEF7EFF820680168314353
:104D60000160206801680422114301602068016825
:104D70000822114301602068016829430160002076
:104D8000F8BD0220F8BD01B50098FEF7E2FB08BDB2
:104D900070B5074D04462846FFF7CEF8002805D128
:104DA0000449486120602846FFF7C6F870BD00003E
:104DB00050C30000840600200348416801221143CB
:104DC000416000207047000000200240F8B5124DFD
:104DD0000746287C14460E46012807D00120287477
:104DE0000E48FFF7A9F8002802D00CE00220F8BD19
:104DF00000216961022F09D0012F09D0002F09D0AD
:104E00000648FFF799F800212974F8BD3460FAE7E5
:104E10003480F8E73470F6E78406002050C30000C1
:104E200005484168C90705D00449C1600449C1600B
:104E3000002070470120704700200240EFCDAB8971
:104E400005040302F0B5002362E001249C402246E1
:104E50000A405CD006685F000325BD402E43AC4687
:104E60000660DD08AD002D182E6AAE465D07EF0E18
:104E70000F25BD40AE4375462E6286686546AE433B
:104E800086604568A5434560C4686546AC43C46018
:104E90009D08214CAD002D19AF689C07260F0F24EB
:104EA000B440A4463C4005273F07B84201D1002743
:104EB00019E01A4FB84201D1012714E0184FB84247
:104EC00001D102270FE0174FB84201D103270AE0B2
:104ED000154FB84201D1042705E0144FB84201D163
:104EE000052700E00627B740A74210D1AE68644608
:104EF000A643AE600E4C25689543256065689543D2
:104F00006560A5689543A560E5689543E5605B1C11
:104F10000A46DA4099D1F0BD00000140000400507B
:104F200000080050000C005000100050001C005001
:104F30000004014010B502F0CDFC10BD10B50449CD
:104F40004A69024202D04861FFF7F4FF10BD000039
:104F500000040140F8B500230124A7E027469F4044
:104F60003A4070D04D68022D01D0122D14D1DD08C9
:104F7000AD002D1800952D6A5E07AC46F50E0F2684
:104F8000AE46AE406546B543AC460E697546AE408A
:104F900065462E43009D2E624D68012D05D0022DE1
:104FA00003D0112D01D0122D16D185680326AC46F1
:104FB0005D00AE46AE406546B543AC46CE6875462C
:104FC000AE4065462E43866046680D79BE43ED06C9
:104FD000ED0F9D403543456006685F000325BD40E9
:104FE000AE46AE430D79B446AE07B60FBE40654639
:104FF0002E430660C6687546AE438D68BD40354396
:10500000C5604D68ED0050D52B4D6E6B26436E6329
:105010009E082A4DB6007519AC46AD689E07360F3E
:105020000F27B740BD4305273F07B84201D10027EE
:105030001AE0234FB84201D1012715E0214FB842B1
:1050400002D1022710E030E01F4FB84201D1032700
:105050000AE01E4FB84201D1042705E01C4FB842B8
:1050600001D1052700E00627B7402F436546AF6012
:10507000184D2E684F689643FF0300D516432E60E7
:105080006E684F689643BF0300D516436E60AE68E6
:105090004F689643FF0200D51643AE60EE684F6836
:1050A0009643BF0200D51643EE605B1C0A681546A6
:1050B000DD4000D052E7F8BD001002400000014082
:1050C0000004005000080050000C00500010005078
:1050D000001C0050000401400069084000D001207D
:1050E0007047002A01D081617047816270470000DB
:1050F00001480068704700008400002070B5024637
:1051000040325378202B1CD11378012B19D0012366
:10511000137024245470046825689D432560046836
:1051200025681E03B5432560046825680D43256086
:105130000068016819430160202050700020107041
:1051400070BD022070BD406C7047000070B5040057
:1051500006D02546403568780026002802D005E0B4
:10516000012070BD2E70204600F0D0FA2420687017
:10517000206801684908490001600F21606809063C
:1051800088432168086121688A680120C00382433E
:105190008A60E1680129A16808D0212292021143A6
:1051A00022689160E168022902D005E00143F7E737
:1051B00001212268C902516021684A680F4B1A43D5
:1051C0004A602168CA688243CA60616920690843ED
:1051D000A169090208432168C860216AE06908439F
:1051E000216808602068016801221143016066643B
:1051F000202068702663AE70002070BD0080000221
:10520000FFB5054604464035687881B020287ED138
:10521000287801287BD001202870FFF769FF074616
:10522000012200901923D103204603F0A3F800289F
:105230003FD1222068701020A87000266664039871
:105240006062049860856663618D09208002FF2991
:1052500003D9FF222285009034E0618D21850090E2
:1052600036E02046029903F073F836E003F0A6F822
:10527000002803D0606C042847D01AE02068416AF7
:10528000606A421C62620170208D401E80B22085DF
:10529000618D491E618500281FD1608D00281CD0BA
:1052A00000970022802120460A9B03F063F8002823
:1052B00002D0032005B0F0BD608DFF2805D9FF2284
:1052C0002285009601231B06CBE7608D2085009682
:1052D000208D0123C2B25B06C3E7608D0A990028C6
:1052E0003A462046C2D103F0A5F80028C2D1216871
:1052F0002020C86121684A68064B1A404A606870DD
:10530000AE702E700020D5E701E00120D2E7022028
:10531000D0E7000000E800FEFFB505460446403532
:10532000687881B020287ED1287801287BD00120A0
:105330002870FFF7DDFE0746012200901923D103F4
:10534000204603F017F800283FD121206870102074
:10535000A87000266664039860620498608566639E
:10536000618D01204003FF2903D9FF22228500908F
:1053700034E0618D2185009036E02046029902F0EC
:10538000E7FF36E003F07DF8002803D0606C0428C6
:1053900047D01AE0606A411C61620178206881622E
:1053A000608D401E6085208D401E0004000C20850D
:1053B0001FD1608D00281CD000970022802120463C
:1053C0000A9B02F0D7FF002802D0032005B0F0BDF1
:1053D000608DFF2805D9FF222285009601231B0638
:1053E000CBE7608D20850096208D0123C2B25B063D
:1053F000C3E7608D0A9900283A462046C2D103F0DF
:1054000019F80028C2D121682020C86121684A68A3
:10541000064B1A404A606870AE702E700020D5E7C7
:1054200001E00120D2E70220D0E7000000E800FE02
:10543000FFB5054604464035687883B0202873D10F
:105440000C98002871D00D9800286ED0287801287B
:105450006AD001202870FFF74BFE0746012200901A
:105460001923D103204602F085FF002876D122209F
:1054700068704020A870002666640C9860620D98E1
:10548000608566630E980090019704A90EC92046B6
:1054900002F0F4FE002804D0606C2E70042860D066
:1054A0005CE0618D09208002FF2905D9FF22228559
:1054B00001231B06009006E0618D21850090208D60
:1054C0000123C2B25B062046049902F041FF009717
:1054D0000022042120460E9B02F04CFF00283DD103
:1054E0002068416A606A421C62620170208D401E21
:1054F00081B22185608D401E6085002921D1608D9B
:1055000000281ED000970022802120460E9B02F02A
:1055100031FF002822D1608DFF2807D9FF22228584
:1055200001231B06009608E02AE01AE0608D208522
:105530000096208D0123C2B25B062046049902F03A
:1055400007FF608D0028C2D13A4620460E9902F02E
:1055500071FF002807D0606C042802D0032007B038
:10556000F0BD0120FBE721682020C86121684A685E
:10557000044B1A404A606870AE702E700020EEE74F
:105580000220ECE700E800FEFFB505460446403582
:10559000687883B0202876D10C98002874D00D98B4
:1055A000002871D0287801286DD001202870FFF7DD
:1055B0009FFD0746012200901923D103204602F0E7
:1055C000D9FE002853D1212068704020A870002601
:1055D00066640C9860620D98608566630E98009012
:1055E000019704A90EC9204602F07DFE002804D0D0
:1055F000606C2E7004286AD039E0608DFF2805D9D0
:10560000FF22228501231B06009606E0608D20857F
:105610000096208D0123C2B25B062046049902F059
:1056200097FE3A4620460E9902F02BFF002803D041
:10563000606C04284BD01AE0606A411C61622168EA
:1056400000788862608D401E6085208D401E0004B9
:10565000000C208524D1608D002821D000970022E5
:10566000802120460E9B02F085FE002802D00320F8
:1056700007B0F0BD608DFF2807D9FF2222850123E6
:105680001B06009608E024E021E0608D208500964E
:10569000208D0123C2B25B062046049902F058FE19
:1056A000608D0028BDD13A4620460E9902F0C2FE18
:1056B0000028BDD120682021C16120684268064BC6
:1056C0001A4042606970AE702E700020D0E7012051
:1056D000CEE70220CCE7000000E800FE10B5094844
:1056E000826A012149050A438262826A8A43826290
:1056F000054C40212046FFF7A5FB80212046FFF7FF
:10570000A1FB10BD001002400004005030B58FB066
:105710000820059040020A9005A800F0DBF9154822
:10572000C26A02210A43C262C26A0A400E92C26A77
:105730000A43C262C26A0A400E92816B012252057C
:1057400011438163402000901220019000200290BC
:105750000320094D01240390694604942846FFF76D
:10576000F9FB80200090694604942846FFF7F2FB7D
:105770000FB030BD001002400004005070B50400AE
:105780000FD021681348086021681348086003CCD3
:1057900041602068083C21688860FFF7A9FC054645
:1057A00008E0012070BDFFF7A3FC401B302801D9A1
:1057B000032070BD2068C0680028F4D12068026909
:1057C000E1688A4201D0016101E0044901600020E2
:1057D00070BD0000CCCC000055550000AAAA000006
:1057E000006802490160002070470000AAAA00007A
:1057F00002480168491C01607047000084000020D5
:1058000010B506480168022211430160032000F030
:1058100007F800F007F8002010BD0000002002404B
:105820000020704710B50848816B02041143816362
:1058300000F036F800F02CF8044801680822114303
:10584000016000F01DF810BD001002400020024071
:10585000C106C90E01208840014908607047000058
:1058600080E100E0C106C90E0120884001490860BE
:105870007047000000E100E010B504F007FC10BD27
:105880000248016802151143016070470070004032
:1058900002480168421511430160704700700040E2
:1058A0000248016810229143016070470070004077
:1058B000094B1A689208920002431A60074802696D
:1058C00004239A430261012903D040BF20BF20BFB7
:1058D000704730BF704700000070004000ED00E0EE
:1058E0000A4B1A689208920002431A60084803693A
:1058F000042213430361012906D040BF20BF20BF0B
:10590000016991430161704730BFF9E700700040C1
:1059100000ED00E0F8B56649074601250020ED03DB
:10592000624B634A4031102F6FD011DC012F77D0CA
:10593000022F6CD0042F6BD0082F24D1C968032408
:10594000240321407BD0BD026C10A9427CD0A0E092
:105950000326584C3604202F0BD0402F35D0FF3F64
:10596000012F10D1C968314069D07C04A1426BD0AD
:1059700096E00B690969012731403F04B94203D120
:10598000990559E02846F8BD01256D04A94203D1C7
:105990009907F8D54848F8BDB142FCD11168890390
:1059A000F9D5116803200005014001200005091AFE
:1059B00009D0091A05D0814201D14048F8BD2046DE
:1059C000F8BD3F48F8BD3F48F8BDC9680125AD06A0
:1059D000294006D0A942F7D191688907F4D53A4801
:1059E000F8BD11688901FBD5D068D1688002374DB8
:1059F000000F2D5C0802810FD068491CC0030AD437
:105A00001068C00605D5204606E045E008E023E022
:105A100030E0184600E02E486843FAF76BFBF8BD0B
:105A2000CC68A407A40F0CD0022C0DD0012C10D0F0
:105A3000032CF4D1096989050029A3DBF8BD16E020
:105A400002E000F0D1F9F9E711684907F6D51846E8
:105A5000F4E700F0D9F9F1E7CC680C26344006D021
:105A6000082CF1D0042CF4D00C2CE3D0E6E700F0A5
:105A7000ABF9E3E7CC680326B6023440F7D0012740
:105A8000FF02BC42E0D07A109442E2D0B442D1D0BE
:105A9000D4E7A142DDD0D1E7916B4902E7D4CDE74D
:105AA000012212049142D4D0C8E700000024F4007F
:105AB0000010024000093D008890000020A107006E
:105AC00040420F0080841E00006CDC02A44B0108E1
:105AD00000127A00F8B5044600785E4D800672D553
